:10013300080CFEFDFBF7EFDFBF7F04083F065B4FB4
:10011E00EF1FAC0670011E4C600A7D027CC7DCFE30
:04012E00DDFC80EC88
:0101320022AA
:04008F007C007E0073
:10009300AB05AA04D2A7EE7053EF14B40800504C7A
:1000A3009000B175F003A4C58325F0C583730200E6
:1000B300C90200CE0200D30200D80200DD0200E232
:1000C3000200E70200EC850C808021850D80801CF6
:1000D300850E808017850F808012851080800D85A6
:1000E300118080088512808003851380C2A77F0159
:1000F3007E0012011EE4F58074082BF8E6F58022D9
:100103007D017F0612008F7D027F0712008F7D0322
:0B0113007C007F087E0012009380E556
:03000000020003F8
:0C000300787FE4F6D8FD75811302004AF6
:10000F00020103E493A3F8E493A34003F68001F203
:10001F0008DFF48029E493A3F85407240CC8C333F2
:10002F00C4540F4420C8834004F456800146F6DFC1
:10003F00E4800B0102040810204080900133E47E1D
:10004F00019360BCA3FF543F30E509541FFEE493B6
:10005F00A360010ECF54C025E060A840B8E493A37D
:10006F00FAE493A3F8E493A3C8C582C8CAC583CAA8
:10007F00F0A3C8C582C8CAC583CADFE9DEE780BE60
:0101430000BB
:00000001FF
